:02000000862B4D
:06000600000000000800EC
:10000C000F3083120313FC004730FD00FD0B0C284E
:0A001C00FC0B0C2800000000080097
:0E002600213083120313FD00FD0B1728080084
:1000340083120313DB1B20288611212886155B1BE2
:100044002528061126280615DB1A2A2886102B28AF
:1000540086145B1A2F2806103028061455183428E5
:10006400061635280612861603208612DB193C284C
:1000740086113D2886155B1941280611422806156C
:10008400DB1846288610472886145B184B28061070
:100094004C280614551850280616512806128616A0
:1000A40003208612551C58280620592813200800BE
:0E00B400831203134C088A004B0882000800D8
:1000C200FB09FA09F909F809F80A0319F90A0319E7
:0800D200FA0A0319FB0A0800F9
:1000DA000E3083120313FD00FD0B71280000080087
:1000EA008312031355105A08DB001A20551408000E
:1000FA007408F8027508031C750FF9027608031CC8
:10010A00760FFA027708031C770FFB02F30D07300C
:10011A00FC00730DF80DF90DFA0DFB0D7408731C34
:10012A00A428F8027508031C750FF9027608031C47
:10013A00760FFA027708031C770FFB02B128F8073B
:10014A0075080318750FF90776080318760FFA076A
:10015A0077080318770FFB07F30DFC0B8E28720D37
:10016A00F80DF90DFA0DFB0D7408731CCA28F80274
:10017A007508031C750FF9027608031C760FFA023C
:10018A007708031C770FFB02D728F80775080318AE
:10019A00750FF90776080318760FFA077708031818
:1001AA00770FFB07F20D0730FC00720DF80DF90D01
:1001BA00FA0DFB0D7408721CF028F8027508031C6E
:1001CA00750FF9027608031C760FFA027708031CEA
:1001DA00770FFB02FD28F80775080318750FF90752
:1001EA0076080318760FFA0777080318770FFB07C4
:1001FA00F20DFC0BDA28710DF80DF90DFA0DFB0D55
:10020A007408721C1629F8027508031C750FF90286
:10021A007608031C760FFA027708031C770FFB0295
:10022A002329F80775080318750FF90776080318C4
:10023A00760FFA0777080318770FFB07F10D0730D7
:10024A00FC00710DF80DF90DFA0DFB0D7408711C07
:10025A003C29F8027508031C750FF9027608031C7D
:10026A00760FFA027708031C770FFB024929F80771
:10027A0075080318750FF90776080318760FFA0739
:10028A0077080318770FFB07F10DFC0B2629700D71
:10029A00F80DF90DFA0DFB0D7408711C6229F802AC
:1002AA007508031C750FF9027608031C760FFA020B
:1002BA007708031C770FFB026F29F80775080318E4
:1002CA00750FF90776080318760FFA0777080318E7
:1002DA00770FFB07F00D0730FC00700DF80DF90DD4
:1002EA00FA0DFB0D7408701C8829F8027508031CA6
:1002FA00750FF9027608031C760FFA027708031CB9
:10030A00770FFB029529F80775080318750FF90787
:10031A0076080318760FFA0777080318770FFB0792
:10032A00F00DFC0B72297018A8297408F8077508D3
:10033A000318750FF90776080318760FFA07770876
:08034A000318770FFB07080000
:10035200831203132230FC00F801F901FA01FB01B8
:10036200FC030319DF290310FB0CFA0CF90CF80C3F
:10037200F30CF20CF10CF00C031CB129FC03031971
:10038200D1297408F80775080318750FF90776085C
:100392000318760FFA0777080318770FFB07B529BA
:1003A2007408F80775080318750FF907760803181B
:0E03B200760FFA0777080318770FFB0708008D
:1003C000831203137408003A031DFB297508003AD1
:1003D000031DFB297608003A031DFB297708003A24
:1003E000031DFB29FF30F000FF30F100FF30F20069
:1003F0007F30F300942A83120313FC01F71BFC0ADD
:10040000FD01FB01FA01F901F8017308720471049E
:10041000700403198F2A73087706A000A01BFD093A
:10042000F71F1D2AF409F509F609F709F40A03195B
:10043000F50A0319F60A0319F70AF31F2A2AF00925
:10044000F109F209F309F00A0319F10A0319F20A92
:100450000319F30A73087704A000A01B4B2A7D2020
:10046000FC1B682AFD1F8F2AF009F109F209F30924
:10047000F00A0319F10A0319F20A0319F30AF80939
:10048000F909FA09FB09F80A0319F90A0319FA0A22
:100490000319FB0A8F2AF71F622AF31B5C2A7308D1
:1004A000FB007208FA007108F9007008F800F30107
:1004B000F201F101F001322AF301F201F101F00140
:1004C000F00A0034F309F209F109F009FC172F2AA8
:1004D000F80A0319F90A0319FA0A0319FB0A74083E
:1004E0007802031D322A75087902031D322A760824
:1004F0007A02031D322A77087B02031D322AFB0190
:10050000FA01F901F801F00A0319F10A0319F20AD4
:100510000319F30AF31F322AA0012016FF34A001A9
:0A0520007C1C932A6120003E0800B5
:10052A00A72A803083120313D600BA2AC030D60015
:10053A00BA2A9430D600BA2AD430D600BA2A8030E1
:10054A00D600BA2A831203135608013A0319962AC7
:10055A005608023A03199B2A5608033A03199E2A97
:10056A005608043A0319A12AA42A5703F000560888
:10057A00F0077008D60055147008DB001A205510D1
:0A058A005808DB001A205514080081
:10059400C330831203139F05C0309F005608F00038
:1005A400F00D7010F00D701070089F0483169F17E3
:1005B40083121F146D209F149F1CE22A0000DE2A60
:1005C4001F101E08F100F00183161E08F00400300D
:0405D400F104080026
:1005D8005A208A110A128000840ACB0A0319CC0A0D
:0805E800F003031DEC2A0800DA
:1005F0000A2B803083120313D6001D2BC030D60087
:100600001D2B9430D6001D2BD430D6001D2B8030EE
:10061000D6001D2B831203135608013A0319F92A39
:100620005608023A0319FE2A5608033A0319012B09
:100630005608043A0319042B072B5703F0005608F9
:10064000F0077008D6007008DB001A205510D90199
:1006500059085807840000080319362B5908580711
:1006600084000008DA007520D90A282B55140800E8
:1006700083160313861206120610861006118611C1
:1006800083128612061286110611861006100620A5
:1006900006200620861406148616032086120620DD
:1006A0008616032086120620861603208612062050
:1006B0000610861603208612062086160320861250
:1006C00086108615861603208612062086110614CB
:1006D0008616032086120610861603208612062030
:1006E000861603208612061486160320861206201C
:1006F0000610861603208612861506158614061423
:0C070000861603208612062055140800FF
:10070C0098248B01043083160317880004300313DC
:10071C0085000317890138230C30DB001A200130C7
:10072C00DB001A203930D4000130D6000130D7005C
:10073C005408D800F8222A30D4000230D6000130F8
:10074C00D7005408D800F822823083169F00FF305F
:10075C00850021308312D4000230D600CA227008E2
:10076C008312D2007108D3000230D6000130D700BA
:10077C005408D800F8225208F0005308F100F20196
:10078C00F3018830F4001330F500F601F701A921CC
:10079C007008CE007108CF007208D0007308D10029
:1007AC00FF30F4000330F500F601F701E02170088A
:1007BC00CE007108CF007208D0007308D100E83069
:1007CC00F4000330F500F601F701E0217008CD00CC
:1007DC000230D6000930D7007008303ED800952280
:1007EC002E30DA0075206430F400F501F601F701C3
:1007FC004E08F0004F08F1005008F2005108F300C9
:10080C00E0210A30F400F501F601F701E021780847
:10081C00F0007908F1007A08F2007B08F300700808
:10082C00CD007008303EDA0075200A30F400F50176
:10083C00F601F7014E08F0004F08F1005008F200E5
:10084C005108F300E0210A30F400F501F601F7013C
:10085C00E0217808F0007908F1007A08F2007B08B2
:10086C00F3007008CD007008303EDA0075200A30B5
:10087C00F400F501F601F7014E08F0004F08F10005
:10088C005008F2005108F300E0217808F0007908D4
:10089C00F1007A08F2007B08F3007008CD007008B4
:1008AC00303EDA0075205630DA0075200330FC003B
:1008BC009730FD00FD0B602CFC0B602C0000000041
:0408CC00B22B672CB8
:10093000213084002A3083120313F0006D30CB0085
:080940000430CC00EC22080099
:1008DA0056346F346C3474346134673465343A3462
:0208EA000034D8
:1008EC0050346C346534613473346534203477346B
:0E08FC006134693474342E342E342E340034BA
:10090A0044344334203456346F346C3474346D3484
:10091A0065347434653472342034443465346D3447
:04092A006F340034F2
:04400E00F22F000786
:00000001FF
